{
  "contractName": "ColdChain",
  "abi": [
    {
      "anonymous": false,
      "inputs": [
        {
          "indexed": false,
          "internalType": "address",
          "name": "entityId",
          "type": "address"
        },
        {
          "indexed": false,
          "internalType": "string",
          "name": "entityRole",
          "type": "string"
        }
      ],
      "name": "AddEntity",
      "type": "event"
    },
    {
      "anonymous": false,
      "inputs": [
        {
          "indexed": false,
          "internalType": "uint256",
          "name": "vaccineBatchId",
          "type": "uint256"
        },
        {
          "indexed": true,
          "internalType": "address",
          "name": "manufacturer",
          "type": "address"
        }
      ],
      "name": "AddVaccineBatch",
      "type": "event"
    },
    {
      "anonymous": false,
      "inputs": [
        {
          "indexed": true,
          "internalType": "address",
          "name": "issuer",
          "type": "address"
        },
        {
          "indexed": true,
          "internalType": "address",
          "name": "prover",
          "type": "address"
        },
        {
          "indexed": false,
          "internalType": "uint256",
          "name": "certificateId",
          "type": "uint256"
        }
      ],
      "name": "IssueCertificate",
      "type": "event"
    },
    {
      "constant": true,
      "inputs": [],
      "name": "MAX_CERTIFICATIONS",
      "outputs": [
        {
          "internalType": "uint256",
          "name": "",
          "type": "uint256"
        }
      ],
      "payable": false,
      "stateMutability": "view",
      "type": "function"
    },
    {
      "constant": true,
      "inputs": [
        {
          "internalType": "uint256",
          "name": "",
          "type": "uint256"
        }
      ],
      "name": "certificateIds",
      "outputs": [
        {
          "internalType": "uint256",
          "name": "",
          "type": "uint256"
        }
      ],
      "payable": false,
      "stateMutability": "view",
      "type": "function"
    },
    {
      "constant": true,
      "inputs": [
        {
          "internalType": "uint256",
          "name": "",
          "type": "uint256"
        }
      ],
      "name": "certificates",
      "outputs": [
        {
          "internalType": "uint256",
          "name": "id",
          "type": "uint256"
        },
        {
          "components": [
            {
              "internalType": "address",
              "name": "id",
              "type": "address"
            },
            {
              "internalType": "enum ColdChain.Role",
              "name": "role",
              "type": "uint8"
            },
            {
              "internalType": "uint256[]",
              "name": "certificateIds",
              "type": "uint256[]"
            }
          ],
          "internalType": "struct ColdChain.Entity",
          "name": "issuer",
          "type": "tuple"
        },
        {
          "components": [
            {
              "internalType": "address",
              "name": "id",
              "type": "address"
            },
            {
              "internalType": "enum ColdChain.Role",
              "name": "role",
              "type": "uint8"
            },
            {
              "internalType": "uint256[]",
              "name": "certificateIds",
              "type": "uint256[]"
            }
          ],
          "internalType": "struct ColdChain.Entity",
          "name": "prover",
          "type": "tuple"
        },
        {
          "internalType": "bytes",
          "name": "signature",
          "type": "bytes"
        },
        {
          "internalType": "enum ColdChain.certificateStatus",
          "name": "status",
          "type": "uint8"
        }
      ],
      "payable": false,
      "stateMutability": "view",
      "type": "function"
    },
    {
      "constant": true,
      "inputs": [
        {
          "internalType": "address",
          "name": "",
          "type": "address"
        }
      ],
      "name": "entities",
      "outputs": [
        {
          "internalType": "address",
          "name": "id",
          "type": "address"
        },
        {
          "internalType": "enum ColdChain.Role",
          "name": "role",
          "type": "uint8"
        }
      ],
      "payable": false,
      "stateMutability": "view",
      "type": "function"
    },
    {
      "constant": true,
      "inputs": [
        {
          "internalType": "uint256",
          "name": "",
          "type": "uint256"
        }
      ],
      "name": "vaccineBatchIds",
      "outputs": [
        {
          "internalType": "uint256",
          "name": "",
          "type": "uint256"
        }
      ],
      "payable": false,
      "stateMutability": "view",
      "type": "function"
    },
    {
      "constant": true,
      "inputs": [
        {
          "internalType": "uint256",
          "name": "",
          "type": "uint256"
        }
      ],
      "name": "vaccineBatchs",
      "outputs": [
        {
          "internalType": "uint256",
          "name": "id",
          "type": "uint256"
        },
        {
          "internalType": "string",
          "name": "brand",
          "type": "string"
        },
        {
          "internalType": "address",
          "name": "manufacturer",
          "type": "address"
        }
      ],
      "payable": false,
      "stateMutability": "view",
      "type": "function"
    },
    {
      "constant": false,
      "inputs": [
        {
          "internalType": "address",
          "name": "_id",
          "type": "address"
        },
        {
          "internalType": "string",
          "name": "_role",
          "type": "string"
        }
      ],
      "name": "addEntity",
      "outputs": [],
      "payable": false,
      "stateMutability": "nonpayable",
      "type": "function"
    },
    {
      "constant": false,
      "inputs": [
        {
          "internalType": "string",
          "name": "brand",
          "type": "string"
        },
        {
          "internalType": "address",
          "name": "manufacturer",
          "type": "address"
        }
      ],
      "name": "addVaccineBatch",
      "outputs": [
        {
          "internalType": "uint256",
          "name": "",
          "type": "uint256"
        }
      ],
      "payable": false,
      "stateMutability": "nonpayable",
      "type": "function"
    },
    {
      "constant": false,
      "inputs": [
        {
          "internalType": "address",
          "name": "_issuer",
          "type": "address"
        },
        {
          "internalType": "address",
          "name": "_prover",
          "type": "address"
        },
        {
          "internalType": "string",
          "name": "_status",
          "type": "string"
        },
        {
          "internalType": "uint256",
          "name": "vaccineBatchId",
          "type": "uint256"
        },
        {
          "internalType": "bytes",
          "name": "signature",
          "type": "bytes"
        }
      ],
      "name": "issueCertificate",
      "outputs": [
        {
          "internalType": "uint256",
          "name": "",
          "type": "uint256"
        }
      ],
      "payable": false,
      "stateMutability": "nonpayable",
      "type": "function"
    },
    {
      "constant": true,
      "inputs": [
        {
          "internalType": "bytes32",
          "name": "message",
          "type": "bytes32"
        },
        {
          "internalType": "uint256",
          "name": "id",
          "type": "uint256"
        },
        {
          "internalType": "address",
          "name": "issuer",
          "type": "address"
        }
      ],
      "name": "isMatchingSignature",
      "outputs": [
        {
          "internalType": "bool",
          "name": "",
          "type": "bool"
        }
      ],
      "payable": false,
      "stateMutability": "view",
      "type": "function"
    }
  ],
  "bytecode": "0x608060405234801561001057600080fd5b506125c7806100206000396000f3fe608060405234801561001057600080fd5b506004361061009e5760003560e01c80637aefaf39116100665780637aefaf39146101865780637dcd95ab146101b6578063b5bad46d146101e8578063c8d8184b14610204578063fc79b0a9146102345761009e565b80630f9c774d146100a35780631d8ee48a146100d357806345194c07146101045780634851a01d14610134578063663b3e2214610152575b600080fd5b6100bd60048036036100b89190810190611b6d565b610264565b6040516100ca919061223c565b60405180910390f35b6100ed60048036036100e891908101906119a6565b610285565b6040516100fb929190612163565b60405180910390f35b61011e60048036036101199190810190611aca565b6102d6565b60405161012b91906121bc565b60405180910390f35b61013c61064b565b604051610149919061223c565b60405180910390f35b61016c60048036036101679190810190611b6d565b610650565b60405161017d959493929190612295565b60405180910390f35b6101a0600480360361019b9190810190611b6d565b6108f5565b6040516101ad919061223c565b60405180910390f35b6101d060048036036101cb9190810190611b6d565b610916565b6040516101df93929190612257565b60405180910390f35b61020260048036036101fd9190810190611a76565b6109f8565b005b61021e600480360361021991908101906119cf565b610b94565b60405161022b919061223c565b60405180910390f35b61024e60048036036102499190810190611b19565b6110e8565b60405161025b919061223c565b60405180910390f35b6000818154811061027157fe5b906000526020600020016000915090505481565b60046020528060005260406000206000915090508060000160009054906101000a900473ffffffffffffffffffffffffffffffffffffffff16908060000160149054906101000a900460ff16905082565b60006102e0611645565b600360008581526020019081526020016000206040518060a001604052908160008201548152602001600182016040518060600160405290816000820160009054906101000a900473ffffffffffffffffffffffffffffffffffffffff1673ffffffffffffffffffffffffffffffffffffffff1673ffffffffffffffffffffffffffffffffffffffff1681526020016000820160149054906101000a900460ff16600281111561038c57fe5b600281111561039757fe5b8152602001600182018054806020026020016040519081016040528092919081815260200182805480156103ea57602002820191906000526020600020905b8154815260200190600101908083116103d6575b5050505050815250508152602001600382016040518060600160405290816000820160009054906101000a900473ffffffffffffffffffffffffffffffffffffffff1673ffffffffffffffffffffffffffffffffffffffff1673ffffffffffffffffffffffffffffffffffffffff1681526020016000820160149054906101000a900460ff16600281111561047b57fe5b600281111561048657fe5b8152602001600182018054806020026020016040519081016040528092919081815260200182805480156104d957602002820191906000526020600020905b8154815260200190600101908083116104c5575b5050505050815250508152602001600582018054600181600116156101000203166002900480601f01602080910402602001604051908101604052809291908181526020018280546001816001161561010002031660029004801561057f5780601f106105545761010080835404028352916020019161057f565b820191906000526020600020905b81548152906001019060200180831161056257829003601f168201915b505050505081526020016006820160009054906101000a900460ff1660048111156105a657fe5b60048111156105b157fe5b8152505090508273ffffffffffffffffffffffffffffffffffffffff1681602001516000015173ffffffffffffffffffffffffffffffffffffffff16146105f757600080fd5b6000610607868360600151611296565b905081602001516000015173ffffffffffffffffffffffffffffffffffffffff168173ffffffffffffffffffffffffffffffffffffffff1614925050509392505050565b600281565b6003602052806000526040600020600091509050806000015490806001016040518060600160405290816000820160009054906101000a900473ffffffffffffffffffffffffffffffffffffffff1673ffffffffffffffffffffffffffffffffffffffff1673ffffffffffffffffffffffffffffffffffffffff1681526020016000820160149054906101000a900460ff1660028111156106ed57fe5b60028111156106f857fe5b81526020016001820180548060200260200160405190810160405280929190818152602001828054801561074b57602002820191906000526020600020905b815481526020019060010190808311610737575b50505050508152505090806003016040518060600160405290816000820160009054906101000a900473ffffffffffffffffffffffffffffffffffffffff1673ffffffffffffffffffffffffffffffffffffffff1673ffffffffffffffffffffffffffffffffffffffff1681526020016000820160149054906101000a900460ff1660028111156107d857fe5b60028111156107e357fe5b81526020016001820180548060200260200160405190810160405280929190818152602001828054801561083657602002820191906000526020600020905b815481526020019060010190808311610822575b50505050508152505090806005018054600181600116156101000203166002900480601f0160208091040260200160405190810160405280929190818152602001828054600181600116156101000203166002900480156108d85780601f106108ad576101008083540402835291602001916108d8565b820191906000526020600020905b8154815290600101906020018083116108bb57829003601f168201915b5050505050908060060160009054906101000a900460ff16905085565b6001818154811061090257fe5b906000526020600020016000915090505481565b6002602052806000526040600020600091509050806000015490806001018054600181600116156101000203166002900480601f0160208091040260200160405190810160405280929190818152602001828054600181600116156101000203166002900480156109c85780601f1061099d576101008083540402835291602001916109c8565b820191906000526020600020905b8154815290600101906020018083116109ab57829003601f168201915b5050505050908060020160009054906101000a900473ffffffffffffffffffffffffffffffffffffffff16905083565b6000610a038261136e565b905060606002604051908082528060200260200182016040528015610a375781602001602082028038833980820191505090505b509050610a4261168b565b60405180606001604052808673ffffffffffffffffffffffffffffffffffffffff168152602001846002811115610a7557fe5b815260200183815250905080600460008773ffffffffffffffffffffffffffffffffffffffff1673ffffffffffffffffffffffffffffffffffffffff16815260200190815260200160002060008201518160000160006101000a81548173ffffffffffffffffffffffffffffffffffffffff021916908373ffffffffffffffffffffffffffffffffffffffff16021790555060208201518160000160146101000a81548160ff02191690836002811115610b2b57fe5b02179055506040820151816001019080519060200190610b4c9291906116cd565b509050507ff5a37da00f0e4029ee2682b1919ee55d7e6f9d7492237aad9bd1aea7d53d4874816000015185604051610b8592919061218c565b60405180910390a15050505050565b6000610b9e61168b565b600460008873ffffffffffffffffffffffffffffffffffffffff1673ffffffffffffffffffffffffffffffffffffffff1681526020019081526020016000206040518060600160405290816000820160009054906101000a900473ffffffffffffffffffffffffffffffffffffffff1673ffffffffffffffffffffffffffffffffffffffff1673ffffffffffffffffffffffffffffffffffffffff1681526020016000820160149054906101000a900460ff166002811115610c5c57fe5b6002811115610c6757fe5b815260200160018201805480602002602001604051908101604052809291908181526020018280548015610cba57602002820191906000526020600020905b815481526020019060010190808311610ca6575b505050505081525050905060006002811115610cd257fe5b81602001516002811115610ce257fe5b14610cec57600080fd5b610cf461168b565b600460008873ffffffffffffffffffffffffffffffffffffffff1673ffffffffffffffffffffffffffffffffffffffff1681526020019081526020016000206040518060600160405290816000820160009054906101000a900473ffffffffffffffffffffffffffffffffffffffff1673ffffffffffffffffffffffffffffffffffffffff1673ffffffffffffffffffffffffffffffffffffffff1681526020016000820160149054906101000a900460ff166002811115610db257fe5b6002811115610dbd57fe5b815260200160018201805480602002602001604051908101604052809291908181526020018280548015610e1057602002820191906000526020600020905b815481526020019060010190808311610dfc575b5050505050815250509050600280811115610e2757fe5b81602001516002811115610e3757fe5b14610e4157600080fd5b6000610e4c8761145e565b9050600080805490509050610e5f611645565b6040518060a00160405280838152602001868152602001858152602001888152602001846004811115610e8e57fe5b8152509050600080805490509080600181540180825580915050906001820390600052602060002001600090919290919091505550806003600060016000805490500381526020019081526020016000206000820151816000015560208201518160010160008201518160000160006101000a81548173ffffffffffffffffffffffffffffffffffffffff021916908373ffffffffffffffffffffffffffffffffffffffff16021790555060208201518160000160146101000a81548160ff02191690836002811115610f5d57fe5b02179055506040820151816001019080519060200190610f7e9291906116cd565b50505060408201518160030160008201518160000160006101000a81548173ffffffffffffffffffffffffffffffffffffffff021916908373ffffffffffffffffffffffffffffffffffffffff16021790555060208201518160000160146101000a81548160ff02191690836002811115610ff557fe5b021790555060408201518160010190805190602001906110169291906116cd565b505050606082015181600501908051906020019061103592919061171a565b5060808201518160060160006101000a81548160ff0219169083600481111561105a57fe5b02179055509050508973ffffffffffffffffffffffffffffffffffffffff168b73ffffffffffffffffffffffffffffffffffffffff167fc9e3e855764ebb21ed83dcdf8ed5e1398c752d6446308e092c28a84a77a199bd6001600080549050036040516110c7919061223c565b60405180910390a36001600080549050039550505050505095945050505050565b60006060600260405190808252806020026020018201604052801561111c5781602001602082028038833980820191505090505b5090506000600180549050905061113161179a565b60405180608001604052808381526020018781526020018673ffffffffffffffffffffffffffffffffffffffff16815260200184815250905080600260008481526020019081526020016000206000820151816000015560208201518160010190805190602001906111a49291906117d8565b5060408201518160020160006101000a81548173ffffffffffffffffffffffffffffffffffffffff021916908373ffffffffffffffffffffffffffffffffffffffff16021790555060608201518160030190805190602001906112089291906116cd565b5090505060018290806001815401808255809150509060018203906000526020600020016000909192909190915055508473ffffffffffffffffffffffffffffffffffffffff167fe85391abb5e51659c581dd95107048251657ee66755655cc08c9c0ec3a0a91398260000151604051611282919061223c565b60405180910390a281935050505092915050565b6000806000806112a58561160a565b92509250925060606040518060400160405280601c81526020017f19457468657265756d205369676e6564204d6573736167653a0a3332000000008152509050600081886040516020016112fa92919061207c565b6040516020818303038152906040528051906020012090506001818686866040516000815260200160405260405161133594939291906121d7565b6020604051602081039080840390855afa158015611357573d6000803e3d6000fd5b505050602060405103519550505050505092915050565b6000808260405160200161138291906120a4565b60405160208183030381529060405280519060200120905060006040516020016113ab9061210f565b60405160208183030381529060405280519060200120905060006040516020016113d490612139565b60405160208183030381529060405280519060200120905060006040516020016113fd90612124565b6040516020818303038152906040528051906020012090508284141561142a576000945050505050611459565b8184141561143f576002945050505050611459565b80841415611454576001945050505050611459565b505050505b919050565b6000808260405160200161147291906120a4565b604051602081830303815290604052805190602001209050600060405160200161149b906120e5565b60405160208183030381529060405280519060200120905060006040516020016114c4906120fa565b60405160208183030381529060405280519060200120905060006040516020016114ed906120bb565b6040516020818303038152906040528051906020012090506000604051602001611516906120d0565b604051602081830303815290604052805190602001209050600060405160200161153f9061214e565b6040516020818303038152906040528051906020012090508486141561156e5760009650505050505050611605565b838614156115855760019650505050505050611605565b8286141561159c5760029650505050505050611605565b818614156115b35760039650505050505050611605565b808614156115ca5760049650505050505050611605565b6040517f08c379a00000000000000000000000000000000000000000000000000000000081526004016115fc9061221c565b60405180910390fd5b919050565b6000806000604184511461161d57600080fd5b6020840151915060408401519050606084015160001a92508282829250925092509193909250565b6040518060a001604052806000815260200161165f611858565b815260200161166c611858565b8152602001606081526020016000600481111561168557fe5b81525090565b6040518060600160405280600073ffffffffffffffffffffffffffffffffffffffff168152602001600060028111156116c057fe5b8152602001606081525090565b828054828255906000526020600020908101928215611709579160200282015b828111156117085782518255916020019190600101906116ed565b5b509050611716919061189a565b5090565b828054600181600116156101000203166002900490600052602060002090601f016020900481019282601f1061175b57805160ff1916838001178555611789565b82800160010185558215611789579182015b8281111561178857825182559160200191906001019061176d565b5b509050611796919061189a565b5090565b60405180608001604052806000815260200160608152602001600073ffffffffffffffffffffffffffffffffffffffff168152602001606081525090565b828054600181600116156101000203166002900490600052602060002090601f016020900481019282601f1061181957805160ff1916838001178555611847565b82800160010185558215611847579182015b8281111561184657825182559160200191906001019061182b565b5b509050611854919061189a565b5090565b6040518060600160405280600073ffffffffffffffffffffffffffffffffffffffff1681526020016000600281111561188d57fe5b8152602001606081525090565b6118bc91905b808211156118b85760008160009055506001016118a0565b5090565b90565b6000813590506118ce8161253f565b92915050565b6000813590506118e381612556565b92915050565b600082601f8301126118fa57600080fd5b813561190d6119088261232a565b6122fd565b9150808252602083016020830185838301111561192957600080fd5b6119348382846124c8565b50505092915050565b600082601f83011261194e57600080fd5b813561196161195c82612356565b6122fd565b9150808252602083016020830185838301111561197d57600080fd5b6119888382846124c8565b50505092915050565b6000813590506119a08161256d565b92915050565b6000602082840312156119b857600080fd5b60006119c6848285016118bf565b91505092915050565b600080600080600060a086880312156119e757600080fd5b60006119f5888289016118bf565b9550506020611a06888289016118bf565b945050604086013567ffffffffffffffff811115611a2357600080fd5b611a2f8882890161193d565b9350506060611a4088828901611991565b925050608086013567ffffffffffffffff811115611a5d57600080fd5b611a69888289016118e9565b9150509295509295909350565b60008060408385031215611a8957600080fd5b6000611a97858286016118bf565b925050602083013567ffffffffffffffff811115611ab457600080fd5b611ac08582860161193d565b9150509250929050565b600080600060608486031215611adf57600080fd5b6000611aed868287016118d4565b9350506020611afe86828701611991565b9250506040611b0f868287016118bf565b9150509250925092565b60008060408385031215611b2c57600080fd5b600083013567ffffffffffffffff811115611b4657600080fd5b611b528582860161193d565b9250506020611b63858286016118bf565b9150509250929050565b600060208284031215611b7f57600080fd5b6000611b8d84828501611991565b91505092915050565b6000611ba2838361204f565b60208301905092915050565b611bb78161241f565b82525050565b611bc68161241f565b82525050565b6000611bd782612392565b611be181856123d6565b9350611bec83612382565b8060005b83811015611c1d578151611c048882611b96565b9750611c0f836123c9565b925050600181019050611bf0565b5085935050505092915050565b611c3381612431565b82525050565b611c428161243d565b82525050565b611c59611c548261243d565b61250a565b82525050565b6000611c6a826123a8565b611c7481856123f8565b9350611c848185602086016124d7565b80840191505092915050565b6000611c9b8261239d565b611ca581856123e7565b9350611cb58185602086016124d7565b611cbe81612514565b840191505092915050565b611cd2816124a4565b82525050565b611ce1816124a4565b82525050565b611cf0816124b6565b82525050565b6000611d01826123be565b611d0b8185612403565b9350611d1b8185602086016124d7565b611d2481612514565b840191505092915050565b6000611d3a826123be565b611d448185612414565b9350611d548185602086016124d7565b80840191505092915050565b6000611d6b826123b3565b611d758185612403565b9350611d858185602086016124d7565b611d8e81612514565b840191505092915050565b6000611da6600683612414565b91507f53544f52454400000000000000000000000000000000000000000000000000006000830152600682019050919050565b6000611de6600e83612414565b91507f44454c4552494e475f4c4f43414c0000000000000000000000000000000000006000830152600e82019050919050565b6000611e26600c83612414565b91507f4d414e55464143545552454400000000000000000000000000000000000000006000830152600c82019050919050565b6000611e66601683612414565b91507f44454c4552494e475f494e5445524e4154494f4e414c000000000000000000006000830152601682019050919050565b6000611ea6600683612414565b91507f49535355455200000000000000000000000000000000000000000000000000006000830152600682019050919050565b6000611ee6600883612414565b91507f56455249464945520000000000000000000000000000000000000000000000006000830152600882019050919050565b6000611f26600683612414565b91507f50524f56455200000000000000000000000000000000000000000000000000006000830152600682019050919050565b6000611f66600983612414565b91507f44454c49564552454400000000000000000000000000000000000000000000006000830152600982019050919050565b6000611fa6602383612403565b91507f526563656976656420496e76616c69642043657274696669636174652053746160008301527f74757300000000000000000000000000000000000000000000000000000000006020830152604082019050919050565b60006060830160008301516120176000860182611bae565b50602083015161202a6020860182611cc9565b50604083015184820360408601526120428282611bcc565b9150508091505092915050565b6120588161248d565b82525050565b6120678161248d565b82525050565b61207681612497565b82525050565b60006120888285611c5f565b91506120948284611c48565b6020820191508190509392505050565b60006120b08284611d2f565b915081905092915050565b60006120c682611d99565b9150819050919050565b60006120db82611dd9565b9150819050919050565b60006120f082611e19565b9150819050919050565b600061210582611e59565b9150819050919050565b600061211a82611e99565b9150819050919050565b600061212f82611ed9565b9150819050919050565b600061214482611f19565b9150819050919050565b600061215982611f59565b9150819050919050565b60006040820190506121786000830185611bbd565b6121856020830184611cd8565b9392505050565b60006040820190506121a16000830185611bbd565b81810360208301526121b38184611cf6565b90509392505050565b60006020820190506121d16000830184611c2a565b92915050565b60006080820190506121ec6000830187611c39565b6121f9602083018661206d565b6122066040830185611c39565b6122136060830184611c39565b95945050505050565b6000602082019050818103600083015261223581611f99565b9050919050565b6000602082019050612251600083018461205e565b92915050565b600060608201905061226c600083018661205e565b818103602083015261227e8185611d60565b905061228d6040830184611bbd565b949350505050565b600060a0820190506122aa600083018861205e565b81810360208301526122bc8187611fff565b905081810360408301526122d08186611fff565b905081810360608301526122e48185611c90565b90506122f36080830184611ce7565b9695505050505050565b6000604051905081810181811067ffffffffffffffff8211171561232057600080fd5b8060405250919050565b600067ffffffffffffffff82111561234157600080fd5b601f19601f8301169050602081019050919050565b600067ffffffffffffffff82111561236d57600080fd5b601f19601f8301169050602081019050919050565b6000819050602082019050919050565b600081519050919050565b600081519050919050565b600081519050919050565b600081519050919050565b600081519050919050565b6000602082019050919050565b600082825260208201905092915050565b600082825260208201905092915050565b600081905092915050565b600082825260208201905092915050565b600081905092915050565b600061242a8261246d565b9050919050565b60008115159050919050565b6000819050919050565b600081905061245582612525565b919050565b600081905061246882612532565b919050565b600073ffffffffffffffffffffffffffffffffffffffff82169050919050565b6000819050919050565b600060ff82169050919050565b60006124af82612447565b9050919050565b60006124c18261245a565b9050919050565b82818337600083830152505050565b60005b838110156124f55780820151818401526020810190506124da565b83811115612504576000848401525b50505050565b6000819050919050565b6000601f19601f8301169050919050565b6003811061252f57fe5b50565b6005811061253c57fe5b50565b6125488161241f565b811461255357600080fd5b50565b61255f8161243d565b811461256a57600080fd5b50565b6125768161248d565b811461258157600080fd5b5056fea365627a7a723158207be3f63705ce2f76b9f0cc61e2c1bf104038103b1f98905a16c2e7b5a8d3ca916c6578706572696d656e74616cf564736f6c63430005100040",
  "source": "//SPDX-License-Identifier: UNLICENSED\npragma solidity >=0.4.22 <0.9.0;\npragma experimental ABIEncoderV2;\nlibrary CryptoSuite {\n    function splitSignature(bytes memory sig) internal pure returns(uint8 v, bytes32 r, bytes32 s) {\n        require(sig.length == 65);\n        assembly {\n             // first 32bytes\n             r := mload(add(sig, 32))\n             // next 32bytes\n             s := mload(add(sig, 64))\n             // last 32bytes\n             v := byte(0, mload(add(sig, 96)))\n        }\n        return (v, r, s);\n    }\n    function recoverSigner(bytes32 message, bytes memory sig) internal pure returns (address) {\n        (uint8 v, bytes32 r, bytes32 s) = splitSignature(sig);\n        bytes memory prefix = \"\\x19Ethereum Signed Message:\\n32\";\n        bytes32 prefixedHash = keccak256(abi.encodePacked(prefix,message));\n        return ecrecover(prefixedHash,v,r,s);\n    }\n}\n\ncontract ColdChain {\n    enum certificateStatus { MANUFACTURED, DELERING_INTERNATIONAL, STORED, DELERING_LOCAL, DELIVERED }\n\n    enum Role { ISSUER, VERIFIER, PROVER }\n\n    struct Entity {\n        address id;\n        Role role;\n        uint[] certificateIds;\n    }\n\n    struct Certificate {\n        uint id;\n        Entity issuer;\n        Entity prover;\n        bytes signature;\n        certificateStatus status;\n    }\n\n    struct VaccineBatch {\n        uint id;\n        string brand;\n        address manufacturer;\n        uint[] certificateIds;\n    }\n    uint public constant MAX_CERTIFICATIONS = 2;\n\n    uint[] public certificateIds;\n    uint[] public vaccineBatchIds;\n\n    mapping( uint => VaccineBatch ) public vaccineBatchs;\n    mapping( uint => Certificate) public certificates;\n    mapping( address => Entity) public entities;\n\n    event AddEntity ( address entityId, string entityRole);\n    event AddVaccineBatch ( uint vaccineBatchId, address indexed manufacturer );\n    event IssueCertificate ( address indexed issuer, address indexed prover, uint certificateId );\n\n\n    function addEntity(address _id , string memory _role) public {\n        Role role = unmarshalMode(_role);\n        uint[] memory _certificateIds = new uint[](MAX_CERTIFICATIONS);\n        Entity memory entity = Entity(_id, role,_certificateIds);\n        entities[_id] = entity;\n        emit AddEntity(entity.id,_role);\n    }\n\n    function unmarshalMode(string memory _role) private pure returns (Role){\n        bytes32 encodedMode = keccak256(abi.encodePacked(_role));\n        bytes32 encodedMode0 = keccak256(abi.encodePacked(\"ISSUER\"));\n        bytes32 encodedMode1 = keccak256(abi.encodePacked(\"PROVER\"));\n        bytes32 encodedMode2 = keccak256(abi.encodePacked(\"VERIFIER\"));\n        if(encodedMode == encodedMode0) {\n            return Role.ISSUER;\n        }\n        else if(encodedMode == encodedMode1) {\n            return Role.PROVER;\n        }\n        else if(encodedMode == encodedMode2) {\n            return Role.VERIFIER;\n        }\n    }\n\n    /////////////////////////////////////////////////////////////////////////////////\n\n    function addVaccineBatch(string memory brand, address manufacturer ) public returns (uint) {\n        uint[] memory _certificateIds = new uint[](MAX_CERTIFICATIONS);\n        uint id = vaccineBatchIds.length;\n        VaccineBatch memory batch = VaccineBatch(id,brand,manufacturer,_certificateIds);\n        vaccineBatchs[id] = batch;\n        vaccineBatchIds.push(id);\n        emit AddVaccineBatch(batch.id,manufacturer);\n        return id;\n    }\n\n    ////////////////////////////////////////////////////////////////////////////////\n\n    function issueCertificate(address _issuer, address _prover, string memory _status, \n            uint vaccineBatchId, bytes memory signature) public returns (uint){\n        Entity memory issuer = entities[_issuer];\n        require(issuer.role == Role.ISSUER);\n\n        Entity memory prover = entities[_prover];\n        require (prover.role == Role.PROVER);\n\n        certificateStatus status = unmarshalStatus(_status);\n\n        uint id = certificateIds.length;\n        Certificate memory certificate = Certificate(id,issuer,prover,signature,status);\n        certificateIds.push(certificateIds.length);\n        certificates[certificateIds.length-1] = certificate;\n        emit IssueCertificate(_issuer,_prover,certificateIds.length-1);\n        return certificateIds.length-1;\n    } \n\n    function unmarshalStatus(string memory _status) private pure returns (certificateStatus){\n        bytes32 encodedStatus = keccak256(abi.encodePacked(_status));\n        bytes32 encodedStatus0 = keccak256(abi.encodePacked(\"MANUFACTURED\"));\n        bytes32 encodedStatus1 = keccak256(abi.encodePacked(\"DELERING_INTERNATIONAL\"));\n        bytes32 encodedStatus2 = keccak256(abi.encodePacked(\"STORED\"));\n        bytes32 encodedStatus3 = keccak256(abi.encodePacked(\"DELERING_LOCAL\"));\n        bytes32 encodedStatus4 = keccak256(abi.encodePacked(\"DELIVERED\"));\n        \n        if(encodedStatus == encodedStatus0) {\n            return certificateStatus.MANUFACTURED;\n        }\n        else if(encodedStatus == encodedStatus1) {\n            return certificateStatus.DELERING_INTERNATIONAL;\n        }\n        else if(encodedStatus == encodedStatus2) {\n            return certificateStatus.STORED;\n        }\n        else if(encodedStatus == encodedStatus3) {\n            return certificateStatus.DELERING_LOCAL;\n        }\n        else if(encodedStatus == encodedStatus4) {\n            return certificateStatus.DELIVERED;\n        }\n        revert(\"Received Invalid Certificate Status\");\n\n    }\n\n    /////////////////////////////////////////////////////////////////////////\n\n    function isMatchingSignature(bytes32 message, uint id, address issuer) public view returns (bool){\n        Certificate memory cert = certificates[id];\n        require(cert.issuer.id == issuer);\n        address recoveredSigner = CryptoSuite.recoverSigner(message,cert.signature);\n        return recoveredSigner == cert.issuer.id;\n    }\n    \n}",
  "sourcePath": "/Users/rahul/Desktop/Final Year Project/Supply-Chain-Blockchain/contracts/verifier.sol",
  "compiler": {
    "name": "solc",
    "version": "0.5.16+commit.9c3226ce.Emscripten.clang"
  },
  "schemaVersion": "3.4.16",
  "updatedAt": "2024-04-24T10:01:18.673Z",
  "devdoc": {
    "methods": {}
  },
  "userdoc": {
    "methods": {
      "addVaccineBatch(string,address)": {
        "notice": "//////////////////////////////////////////////////////////////////////////////"
      },
      "isMatchingSignature(bytes32,uint256,address)": {
        "notice": "//////////////////////////////////////////////////////////////////////"
      },
      "issueCertificate(address,address,string,uint256,bytes)": {
        "notice": "/////////////////////////////////////////////////////////////////////////////"
      }
    }
  }
}